{
  "address": "0x9deE0e8Cb9736AF49ad3a24602EE043F7e14eD60",
  "abi": [
    {
      "inputs": [],
      "stateMutability": "nonpayable",
      "type": "constructor"
    },
    {
      "inputs": [],
      "name": "enter",
      "outputs": [],
      "stateMutability": "payable",
      "type": "function"
    },
    {
      "inputs": [],
      "name": "getBalance",
      "outputs": [
        {
          "internalType": "uint256",
          "name": "",
          "type": "uint256"
        }
      ],
      "stateMutability": "view",
      "type": "function"
    },
    {
      "inputs": [],
      "name": "getLotteryId",
      "outputs": [
        {
          "internalType": "uint256",
          "name": "",
          "type": "uint256"
        }
      ],
      "stateMutability": "view",
      "type": "function"
    },
    {
      "inputs": [],
      "name": "getOwner",
      "outputs": [
        {
          "internalType": "address",
          "name": "",
          "type": "address"
        }
      ],
      "stateMutability": "view",
      "type": "function"
    },
    {
      "inputs": [],
      "name": "getPlayers",
      "outputs": [
        {
          "internalType": "address payable[]",
          "name": "",
          "type": "address[]"
        }
      ],
      "stateMutability": "view",
      "type": "function"
    },
    {
      "inputs": [],
      "name": "getRandomNumber",
      "outputs": [
        {
          "internalType": "uint256",
          "name": "",
          "type": "uint256"
        }
      ],
      "stateMutability": "view",
      "type": "function"
    },
    {
      "inputs": [],
      "name": "getWinners",
      "outputs": [
        {
          "internalType": "address[]",
          "name": "",
          "type": "address[]"
        }
      ],
      "stateMutability": "view",
      "type": "function"
    },
    {
      "inputs": [],
      "name": "lotteryId",
      "outputs": [
        {
          "internalType": "uint256",
          "name": "",
          "type": "uint256"
        }
      ],
      "stateMutability": "view",
      "type": "function"
    },
    {
      "inputs": [],
      "name": "owner",
      "outputs": [
        {
          "internalType": "address",
          "name": "",
          "type": "address"
        }
      ],
      "stateMutability": "view",
      "type": "function"
    },
    {
      "inputs": [],
      "name": "pickWinner",
      "outputs": [],
      "stateMutability": "nonpayable",
      "type": "function"
    },
    {
      "inputs": [
        {
          "internalType": "uint256",
          "name": "",
          "type": "uint256"
        }
      ],
      "name": "players",
      "outputs": [
        {
          "internalType": "address payable",
          "name": "",
          "type": "address"
        }
      ],
      "stateMutability": "view",
      "type": "function"
    },
    {
      "inputs": [
        {
          "internalType": "uint256",
          "name": "",
          "type": "uint256"
        }
      ],
      "name": "winners",
      "outputs": [
        {
          "internalType": "address",
          "name": "",
          "type": "address"
        }
      ],
      "stateMutability": "view",
      "type": "function"
    }
  ],
  "transactionHash": "0xc3669b476c9956b436e0097472aec79a92a39a84bf365727d8a66eb6e76573b8",
  "args": [],
  "numDeployments": 2,
  "solcInputHash": "7f9b8dfd0ffb18297fabb6c420cd3f19",
  "bytecode": "0x608060405234801561001057600080fd5b50336000806101000a81548173ffffffffffffffffffffffffffffffffffffffff021916908373ffffffffffffffffffffffffffffffffffffffff1602179055506000600381905550610d12806100686000396000f3fe6080604052600436106100a75760003560e01c8063a2fb117511610064578063a2fb11751461019a578063dbdff2c1146101d7578063df15c37e14610202578063e580f47b1461022d578063e97dcb6214610258578063f71d96cb14610262576100a7565b806312065fe0146100ac5780635d495aea146100d7578063893d20e8146100ee5780638b5b9ccc146101195780638da5cb5b14610144578063900aafaf1461016f575b600080fd5b3480156100b857600080fd5b506100c161029f565b6040516100ce9190610a74565b60405180910390f35b3480156100e357600080fd5b506100ec6102a7565b005b3480156100fa57600080fd5b506101036104bc565b60405161011091906109fa565b60405180910390f35b34801561012557600080fd5b5061012e6104e5565b60405161013b9190610a52565b60405180910390f35b34801561015057600080fd5b50610159610573565b60405161016691906109fa565b60405180910390f35b34801561017b57600080fd5b50610184610597565b6040516101919190610a74565b60405180910390f35b3480156101a657600080fd5b506101c160048036038101906101bc919061083c565b6105a1565b6040516101ce91906109fa565b60405180910390f35b3480156101e357600080fd5b506101ec6105e0565b6040516101f99190610a74565b60405180910390f35b34801561020e57600080fd5b50610217610634565b6040516102249190610a30565b60405180910390f35b34801561023957600080fd5b506102426106c2565b60405161024f9190610a74565b60405180910390f35b6102606106c8565b005b34801561026e57600080fd5b506102896004803603810190610284919061083c565b610741565b6040516102969190610a15565b60405180910390f35b600047905090565b60008054906101000a900473ffffffffffffffffffffffffffffffffffffffff1673ffffffffffffffffffffffffffffffffffffffff163373ffffffffffffffffffffffffffffffffffffffff16146102ff57600080fd5b600060018054905061030f6105e0565b6103199190610bc6565b90506001818154811061032f5761032e610c55565b5b9060005260206000200160009054906101000a900473ffffffffffffffffffffffffffffffffffffffff1673ffffffffffffffffffffffffffffffffffffffff166108fc479081150290604051600060405180830381858888f1935050505015801561039f573d6000803e3d6000fd5b506002600182815481106103b6576103b5610c55565b5b9060005260206000200160009054906101000a900473ffffffffffffffffffffffffffffffffffffffff169080600181540180825580915050600190039060005260206000200160009091909190916101000a81548173ffffffffffffffffffffffffffffffffffffffff021916908373ffffffffffffffffffffffffffffffffffffffff1602179055506003600081548092919061045490610b4f565b9190505550600067ffffffffffffffff81111561047457610473610c84565b5b6040519080825280602002602001820160405280156104a25781602001602082028036833780820191505090505b50600190805190602001906104b8929190610780565b5050565b60008060009054906101000a900473ffffffffffffffffffffffffffffffffffffffff16905090565b6060600180548060200260200160405190810160405280929190818152602001828054801561056957602002820191906000526020600020905b8160009054906101000a900473ffffffffffffffffffffffffffffffffffffffff1673ffffffffffffffffffffffffffffffffffffffff168152602001906001019080831161051f575b5050505050905090565b60008054906101000a900473ffffffffffffffffffffffffffffffffffffffff1681565b6000600354905090565b600281815481106105b157600080fd5b906000526020600020016000915054906101000a900473ffffffffffffffffffffffffffffffffffffffff1681565b60008060009054906101000a900473ffffffffffffffffffffffffffffffffffffffff16426040516020016106169291906109ce565b6040516020818303038152906040528051906020012060001c905090565b606060028054806020026020016040519081016040528092919081815260200182805480156106b857602002820191906000526020600020905b8160009054906101000a900473ffffffffffffffffffffffffffffffffffffffff1673ffffffffffffffffffffffffffffffffffffffff168152602001906001019080831161066e575b5050505050905090565b60035481565b662386f26fc100003410156106dc57600080fd5b6001339080600181540180825580915050600190039060005260206000200160009091909190916101000a81548173ffffffffffffffffffffffffffffffffffffffff021916908373ffffffffffffffffffffffffffffffffffffffff160217905550565b6001818154811061075157600080fd5b906000526020600020016000915054906101000a900473ffffffffffffffffffffffffffffffffffffffff1681565b8280548282559060005260206000209081019282156107f9579160200282015b828111156107f85782518260006101000a81548173ffffffffffffffffffffffffffffffffffffffff021916908373ffffffffffffffffffffffffffffffffffffffff160217905550916020019190600101906107a0565b5b509050610806919061080a565b5090565b5b8082111561082357600081600090555060010161080b565b5090565b60008135905061083681610cc5565b92915050565b60006020828403121561085257610851610cb3565b5b600061086084828501610827565b91505092915050565b60006108758383610899565b60208301905092915050565b600061088d83836108b7565b60208301905092915050565b6108a281610b13565b82525050565b6108b181610b13565b82525050565b6108c081610b01565b82525050565b6108cf81610b01565b82525050565b6108e66108e182610b01565b610b98565b82525050565b60006108f782610aaf565b6109018185610adf565b935061090c83610a8f565b8060005b8381101561093d5781516109248882610881565b975061092f83610ac5565b925050600181019050610910565b5085935050505092915050565b600061095582610aba565b61095f8185610af0565b935061096a83610a9f565b8060005b8381101561099b5781516109828882610869565b975061098d83610ad2565b92505060018101905061096e565b5085935050505092915050565b6109b181610b45565b82525050565b6109c86109c382610b45565b610bbc565b82525050565b60006109da82856108d5565b6014820191506109ea82846109b7565b6020820191508190509392505050565b6000602082019050610a0f60008301846108c6565b92915050565b6000602082019050610a2a60008301846108a8565b92915050565b60006020820190508181036000830152610a4a81846108ec565b905092915050565b60006020820190508181036000830152610a6c818461094a565b905092915050565b6000602082019050610a8960008301846109a8565b92915050565b6000819050602082019050919050565b6000819050602082019050919050565b600081519050919050565b600081519050919050565b6000602082019050919050565b6000602082019050919050565b600082825260208201905092915050565b600082825260208201905092915050565b6000610b0c82610b25565b9050919050565b6000610b1e82610b25565b9050919050565b600073ffffffffffffffffffffffffffffffffffffffff82169050919050565b6000819050919050565b6000610b5a82610b45565b91507fffffffffffffffffffffffffffffffffffffffffffffffffffffffffffffffff821415610b8d57610b8c610bf7565b5b600182019050919050565b6000610ba382610baa565b9050919050565b6000610bb582610cb8565b9050919050565b6000819050919050565b6000610bd182610b45565b9150610bdc83610b45565b925082610bec57610beb610c26565b5b828206905092915050565b7f4e487b7100000000000000000000000000000000000000000000000000000000600052601160045260246000fd5b7f4e487b7100000000000000000000000000000000000000000000000000000000600052601260045260246000fd5b7f4e487b7100000000000000000000000000000000000000000000000000000000600052603260045260246000fd5b7f4e487b7100000000000000000000000000000000000000000000000000000000600052604160045260246000fd5b600080fd5b60008160601b9050919050565b610cce81610b45565b8114610cd957600080fd5b5056fea264697066735822122071a9b977a3e44f4bc31689bc4c6fa33a55c70c7b5cdf90c7b713cc327f0a4a4364736f6c63430008070033",
  "devdoc": {
    "kind": "dev",
    "methods": {},
    "version": 1
  },
  "userdoc": {
    "kind": "user",
    "methods": {},
    "version": 1
  },
  "storageLayout": {
    "storage": [
      {
        "astId": 3,
        "contract": "contracts/Lottert.sol:Lottery",
        "label": "owner",
        "offset": 0,
        "slot": "0",
        "type": "t_address"
      },
      {
        "astId": 6,
        "contract": "contracts/Lottert.sol:Lottery",
        "label": "players",
        "offset": 0,
        "slot": "1",
        "type": "t_array(t_address_payable)dyn_storage"
      },
      {
        "astId": 9,
        "contract": "contracts/Lottert.sol:Lottery",
        "label": "winners",
        "offset": 0,
        "slot": "2",
        "type": "t_array(t_address)dyn_storage"
      },
      {
        "astId": 11,
        "contract": "contracts/Lottert.sol:Lottery",
        "label": "lotteryId",
        "offset": 0,
        "slot": "3",
        "type": "t_uint256"
      }
    ],
    "types": {
      "t_address": {
        "encoding": "inplace",
        "label": "address",
        "numberOfBytes": "20"
      },
      "t_address_payable": {
        "encoding": "inplace",
        "label": "address payable",
        "numberOfBytes": "20"
      },
      "t_array(t_address)dyn_storage": {
        "base": "t_address",
        "encoding": "dynamic_array",
        "label": "address[]",
        "numberOfBytes": "32"
      },
      "t_array(t_address_payable)dyn_storage": {
        "base": "t_address_payable",
        "encoding": "dynamic_array",
        "label": "address payable[]",
        "numberOfBytes": "32"
      },
      "t_uint256": {
        "encoding": "inplace",
        "label": "uint256",
        "numberOfBytes": "32"
      }
    }
  }
}